{
  "_format": "hh-sol-artifact-1",
  "contractName": "AcademicCredential",
  "sourceName": "contracts/AcademicCredential.sol",
  "abi": [
    {
      "inputs": [],
      "stateMutability": "nonpayable",
      "type": "constructor"
    },
    {
      "anonymous": false,
      "inputs": [
        {
          "indexed": true,
          "internalType": "address",
          "name": "owner",
          "type": "address"
        },
        {
          "indexed": true,
          "internalType": "address",
          "name": "approved",
          "type": "address"
        },
        {
          "indexed": true,
          "internalType": "uint256",
          "name": "tokenId",
          "type": "uint256"
        }
      ],
      "name": "Approval",
      "type": "event"
    },
    {
      "anonymous": false,
      "inputs": [
        {
          "indexed": true,
          "internalType": "address",
          "name": "owner",
          "type": "address"
        },
        {
          "indexed": true,
          "internalType": "address",
          "name": "operator",
          "type": "address"
        },
        {
          "indexed": false,
          "internalType": "bool",
          "name": "approved",
          "type": "bool"
        }
      ],
      "name": "ApprovalForAll",
      "type": "event"
    },
    {
      "anonymous": false,
      "inputs": [
        {
          "indexed": false,
          "internalType": "uint256",
          "name": "_fromTokenId",
          "type": "uint256"
        },
        {
          "indexed": false,
          "internalType": "uint256",
          "name": "_toTokenId",
          "type": "uint256"
        }
      ],
      "name": "BatchMetadataUpdate",
      "type": "event"
    },
    {
      "anonymous": false,
      "inputs": [
        {
          "indexed": true,
          "internalType": "address",
          "name": "issuer",
          "type": "address"
        },
        {
          "indexed": true,
          "internalType": "address",
          "name": "to",
          "type": "address"
        },
        {
          "indexed": true,
          "internalType": "uint256",
          "name": "tokenId",
          "type": "uint256"
        },
        {
          "indexed": false,
          "internalType": "string",
          "name": "title",
          "type": "string"
        }
      ],
      "name": "CredentialIssued",
      "type": "event"
    },
    {
      "anonymous": false,
      "inputs": [
        {
          "indexed": false,
          "internalType": "uint256",
          "name": "_tokenId",
          "type": "uint256"
        }
      ],
      "name": "MetadataUpdate",
      "type": "event"
    },
    {
      "anonymous": false,
      "inputs": [
        {
          "indexed": true,
          "internalType": "bytes32",
          "name": "role",
          "type": "bytes32"
        },
        {
          "indexed": true,
          "internalType": "bytes32",
          "name": "previousAdminRole",
          "type": "bytes32"
        },
        {
          "indexed": true,
          "internalType": "bytes32",
          "name": "newAdminRole",
          "type": "bytes32"
        }
      ],
      "name": "RoleAdminChanged",
      "type": "event"
    },
    {
      "anonymous": false,
      "inputs": [
        {
          "indexed": true,
          "internalType": "bytes32",
          "name": "role",
          "type": "bytes32"
        },
        {
          "indexed": true,
          "internalType": "address",
          "name": "account",
          "type": "address"
        },
        {
          "indexed": true,
          "internalType": "address",
          "name": "sender",
          "type": "address"
        }
      ],
      "name": "RoleGranted",
      "type": "event"
    },
    {
      "anonymous": false,
      "inputs": [
        {
          "indexed": true,
          "internalType": "bytes32",
          "name": "role",
          "type": "bytes32"
        },
        {
          "indexed": true,
          "internalType": "address",
          "name": "account",
          "type": "address"
        },
        {
          "indexed": true,
          "internalType": "address",
          "name": "sender",
          "type": "address"
        }
      ],
      "name": "RoleRevoked",
      "type": "event"
    },
    {
      "anonymous": false,
      "inputs": [
        {
          "indexed": true,
          "internalType": "address",
          "name": "from",
          "type": "address"
        },
        {
          "indexed": true,
          "internalType": "address",
          "name": "to",
          "type": "address"
        },
        {
          "indexed": true,
          "internalType": "uint256",
          "name": "tokenId",
          "type": "uint256"
        }
      ],
      "name": "Transfer",
      "type": "event"
    },
    {
      "inputs": [],
      "name": "DEFAULT_ADMIN_ROLE",
      "outputs": [
        {
          "internalType": "bytes32",
          "name": "",
          "type": "bytes32"
        }
      ],
      "stateMutability": "view",
      "type": "function"
    },
    {
      "inputs": [],
      "name": "ISSUER_ROLE",
      "outputs": [
        {
          "internalType": "bytes32",
          "name": "",
          "type": "bytes32"
        }
      ],
      "stateMutability": "view",
      "type": "function"
    },
    {
      "inputs": [
        {
          "internalType": "address",
          "name": "uniAddress",
          "type": "address"
        },
        {
          "internalType": "string",
          "name": "uniName",
          "type": "string"
        }
      ],
      "name": "addUniversity",
      "outputs": [],
      "stateMutability": "nonpayable",
      "type": "function"
    },
    {
      "inputs": [
        {
          "internalType": "address",
          "name": "to",
          "type": "address"
        },
        {
          "internalType": "uint256",
          "name": "tokenId",
          "type": "uint256"
        }
      ],
      "name": "approve",
      "outputs": [],
      "stateMutability": "nonpayable",
      "type": "function"
    },
    {
      "inputs": [
        {
          "internalType": "address",
          "name": "owner",
          "type": "address"
        }
      ],
      "name": "balanceOf",
      "outputs": [
        {
          "internalType": "uint256",
          "name": "",
          "type": "uint256"
        }
      ],
      "stateMutability": "view",
      "type": "function"
    },
    {
      "inputs": [
        {
          "internalType": "uint256",
          "name": "",
          "type": "uint256"
        }
      ],
      "name": "certificateTitle",
      "outputs": [
        {
          "internalType": "string",
          "name": "",
          "type": "string"
        }
      ],
      "stateMutability": "view",
      "type": "function"
    },
    {
      "inputs": [
        {
          "internalType": "uint256",
          "name": "",
          "type": "uint256"
        }
      ],
      "name": "credentialIssuer",
      "outputs": [
        {
          "internalType": "address",
          "name": "",
          "type": "address"
        }
      ],
      "stateMutability": "view",
      "type": "function"
    },
    {
      "inputs": [
        {
          "internalType": "uint256",
          "name": "tokenId",
          "type": "uint256"
        }
      ],
      "name": "getApproved",
      "outputs": [
        {
          "internalType": "address",
          "name": "",
          "type": "address"
        }
      ],
      "stateMutability": "view",
      "type": "function"
    },
    {
      "inputs": [
        {
          "internalType": "bytes32",
          "name": "role",
          "type": "bytes32"
        }
      ],
      "name": "getRoleAdmin",
      "outputs": [
        {
          "internalType": "bytes32",
          "name": "",
          "type": "bytes32"
        }
      ],
      "stateMutability": "view",
      "type": "function"
    },
    {
      "inputs": [
        {
          "internalType": "uint256",
          "name": "index",
          "type": "uint256"
        }
      ],
      "name": "getUniversityAtIndex",
      "outputs": [
        {
          "internalType": "address",
          "name": "",
          "type": "address"
        },
        {
          "internalType": "string",
          "name": "",
          "type": "string"
        }
      ],
      "stateMutability": "view",
      "type": "function"
    },
    {
      "inputs": [],
      "name": "getUniversityCount",
      "outputs": [
        {
          "internalType": "uint256",
          "name": "",
          "type": "uint256"
        }
      ],
      "stateMutability": "view",
      "type": "function"
    },
    {
      "inputs": [
        {
          "internalType": "bytes32",
          "name": "role",
          "type": "bytes32"
        },
        {
          "internalType": "address",
          "name": "account",
          "type": "address"
        }
      ],
      "name": "grantRole",
      "outputs": [],
      "stateMutability": "nonpayable",
      "type": "function"
    },
    {
      "inputs": [
        {
          "internalType": "bytes32",
          "name": "role",
          "type": "bytes32"
        },
        {
          "internalType": "address",
          "name": "account",
          "type": "address"
        }
      ],
      "name": "hasRole",
      "outputs": [
        {
          "internalType": "bool",
          "name": "",
          "type": "bool"
        }
      ],
      "stateMutability": "view",
      "type": "function"
    },
    {
      "inputs": [
        {
          "internalType": "address",
          "name": "owner",
          "type": "address"
        },
        {
          "internalType": "address",
          "name": "operator",
          "type": "address"
        }
      ],
      "name": "isApprovedForAll",
      "outputs": [
        {
          "internalType": "bool",
          "name": "",
          "type": "bool"
        }
      ],
      "stateMutability": "view",
      "type": "function"
    },
    {
      "inputs": [
        {
          "internalType": "address",
          "name": "student",
          "type": "address"
        },
        {
          "internalType": "string",
          "name": "uri",
          "type": "string"
        },
        {
          "internalType": "string",
          "name": "title",
          "type": "string"
        }
      ],
      "name": "issueCredential",
      "outputs": [
        {
          "internalType": "uint256",
          "name": "",
          "type": "uint256"
        }
      ],
      "stateMutability": "nonpayable",
      "type": "function"
    },
    {
      "inputs": [],
      "name": "name",
      "outputs": [
        {
          "internalType": "string",
          "name": "",
          "type": "string"
        }
      ],
      "stateMutability": "view",
      "type": "function"
    },
    {
      "inputs": [
        {
          "internalType": "uint256",
          "name": "tokenId",
          "type": "uint256"
        }
      ],
      "name": "ownerOf",
      "outputs": [
        {
          "internalType": "address",
          "name": "",
          "type": "address"
        }
      ],
      "stateMutability": "view",
      "type": "function"
    },
    {
      "inputs": [
        {
          "internalType": "bytes32",
          "name": "role",
          "type": "bytes32"
        },
        {
          "internalType": "address",
          "name": "account",
          "type": "address"
        }
      ],
      "name": "renounceRole",
      "outputs": [],
      "stateMutability": "nonpayable",
      "type": "function"
    },
    {
      "inputs": [
        {
          "internalType": "uint256",
          "name": "tokenId",
          "type": "uint256"
        }
      ],
      "name": "revokeCredential",
      "outputs": [],
      "stateMutability": "nonpayable",
      "type": "function"
    },
    {
      "inputs": [
        {
          "internalType": "bytes32",
          "name": "role",
          "type": "bytes32"
        },
        {
          "internalType": "address",
          "name": "account",
          "type": "address"
        }
      ],
      "name": "revokeRole",
      "outputs": [],
      "stateMutability": "nonpayable",
      "type": "function"
    },
    {
      "inputs": [
        {
          "internalType": "address",
          "name": "from",
          "type": "address"
        },
        {
          "internalType": "address",
          "name": "to",
          "type": "address"
        },
        {
          "internalType": "uint256",
          "name": "tokenId",
          "type": "uint256"
        }
      ],
      "name": "safeTransferFrom",
      "outputs": [],
      "stateMutability": "nonpayable",
      "type": "function"
    },
    {
      "inputs": [
        {
          "internalType": "address",
          "name": "from",
          "type": "address"
        },
        {
          "internalType": "address",
          "name": "to",
          "type": "address"
        },
        {
          "internalType": "uint256",
          "name": "tokenId",
          "type": "uint256"
        },
        {
          "internalType": "bytes",
          "name": "data",
          "type": "bytes"
        }
      ],
      "name": "safeTransferFrom",
      "outputs": [],
      "stateMutability": "nonpayable",
      "type": "function"
    },
    {
      "inputs": [
        {
          "internalType": "address",
          "name": "operator",
          "type": "address"
        },
        {
          "internalType": "bool",
          "name": "approved",
          "type": "bool"
        }
      ],
      "name": "setApprovalForAll",
      "outputs": [],
      "stateMutability": "nonpayable",
      "type": "function"
    },
    {
      "inputs": [
        {
          "internalType": "bytes4",
          "name": "interfaceId",
          "type": "bytes4"
        }
      ],
      "name": "supportsInterface",
      "outputs": [
        {
          "internalType": "bool",
          "name": "",
          "type": "bool"
        }
      ],
      "stateMutability": "view",
      "type": "function"
    },
    {
      "inputs": [],
      "name": "symbol",
      "outputs": [
        {
          "internalType": "string",
          "name": "",
          "type": "string"
        }
      ],
      "stateMutability": "view",
      "type": "function"
    },
    {
      "inputs": [
        {
          "internalType": "uint256",
          "name": "index",
          "type": "uint256"
        }
      ],
      "name": "tokenByIndex",
      "outputs": [
        {
          "internalType": "uint256",
          "name": "",
          "type": "uint256"
        }
      ],
      "stateMutability": "view",
      "type": "function"
    },
    {
      "inputs": [
        {
          "internalType": "address",
          "name": "owner",
          "type": "address"
        },
        {
          "internalType": "uint256",
          "name": "index",
          "type": "uint256"
        }
      ],
      "name": "tokenOfOwnerByIndex",
      "outputs": [
        {
          "internalType": "uint256",
          "name": "",
          "type": "uint256"
        }
      ],
      "stateMutability": "view",
      "type": "function"
    },
    {
      "inputs": [
        {
          "internalType": "uint256",
          "name": "tokenId",
          "type": "uint256"
        }
      ],
      "name": "tokenURI",
      "outputs": [
        {
          "internalType": "string",
          "name": "",
          "type": "string"
        }
      ],
      "stateMutability": "view",
      "type": "function"
    },
    {
      "inputs": [],
      "name": "totalSupply",
      "outputs": [
        {
          "internalType": "uint256",
          "name": "",
          "type": "uint256"
        }
      ],
      "stateMutability": "view",
      "type": "function"
    },
    {
      "inputs": [
        {
          "internalType": "address",
          "name": "from",
          "type": "address"
        },
        {
          "internalType": "address",
          "name": "to",
          "type": "address"
        },
        {
          "internalType": "uint256",
          "name": "tokenId",
          "type": "uint256"
        }
      ],
      "name": "transferFrom",
      "outputs": [],
      "stateMutability": "nonpayable",
      "type": "function"
    },
    {
      "inputs": [
        {
          "internalType": "address",
          "name": "",
          "type": "address"
        }
      ],
      "name": "universityNames",
      "outputs": [
        {
          "internalType": "string",
          "name": "",
          "type": "string"
        }
      ],
      "stateMutability": "view",
      "type": "function"
    }
  ],
  "bytecode": "0x60806040523480156200001157600080fd5b506040518060400160405280601281526020017f41636164656d696343726564656e7469616c00000000000000000000000000008152506040518060400160405280600481526020017f414341440000000000000000000000000000000000000000000000000000000081525081600090816200008f91906200049e565b508060019081620000a191906200049e565b505050620000b96000801b33620000bf60201b60201c565b62000585565b620000d18282620001b160201b60201c565b620001ad576001600b600084815260200190815260200160002060000160008373ffffffffffffffffffffffffffffffffffffffff1673ffffffffffffffffffffffffffffffffffffffff16815260200190815260200160002060006101000a81548160ff021916908315150217905550620001526200021c60201b60201c565b73ffffffffffffffffffffffffffffffffffffffff168173ffffffffffffffffffffffffffffffffffffffff16837f2f8788117e7eff1d82e926ec794901d17c78024a50270940304540a733656f0d60405160405180910390a45b5050565b6000600b600084815260200190815260200160002060000160008373ffffffffffffffffffffffffffffffffffffffff1673ffffffffffffffffffffffffffffffffffffffff16815260200190815260200160002060009054906101000a900460ff16905092915050565b600033905090565b600081519050919050565b7f4e487b7100000000000000000000000000000000000000000000000000000000600052604160045260246000fd5b7f4e487b7100000000000000000000000000000000000000000000000000000000600052602260045260246000fd5b60006002820490506001821680620002a657607f821691505b602082108103620002bc57620002bb6200025e565b5b50919050565b60008190508160005260206000209050919050565b60006020601f8301049050919050565b600082821b905092915050565b600060088302620003267fffffffffffffffffffffffffffffffffffffffffffffffffffffffffffffffff82620002e7565b620003328683620002e7565b95508019841693508086168417925050509392505050565b6000819050919050565b6000819050919050565b60006200037f6200037962000373846200034a565b62000354565b6200034a565b9050919050565b6000819050919050565b6200039b836200035e565b620003b3620003aa8262000386565b848454620002f4565b825550505050565b600090565b620003ca620003bb565b620003d781848462000390565b505050565b5b81811015620003ff57620003f3600082620003c0565b600181019050620003dd565b5050565b601f8211156200044e576200041881620002c2565b6200042384620002d7565b8101602085101562000433578190505b6200044b6200044285620002d7565b830182620003dc565b50505b505050565b600082821c905092915050565b6000620004736000198460080262000453565b1980831691505092915050565b60006200048e838362000460565b9150826002028217905092915050565b620004a98262000224565b67ffffffffffffffff811115620004c557620004c46200022f565b5b620004d182546200028d565b620004de82828562000403565b600060209050601f83116001811462000516576000841562000501578287015190505b6200050d858262000480565b8655506200057d565b601f1984166200052686620002c2565b60005b82811015620005505784890151825560018201915060208501945060208101905062000529565b868310156200057057848901516200056c601f89168262000460565b8355505b6001600288020188555050505b505050505050565b614bc780620005956000396000f3fe608060405234801561001057600080fd5b50600436106101e55760003560e01c806363d194321161010f578063a22cb465116100a2578063b88d4fde11610071578063b88d4fde146105ef578063c87b56dd1461060b578063d547741f1461063b578063e985e9c514610657576101e5565b8063a22cb46514610557578063a908dc6214610573578063aa936b4a1461058f578063b722dea1146105bf576101e5565b806393e21403116100de57806393e21403146104bb57806395d89b41146104eb5780639f4ed4fb14610509578063a217fddf14610539576101e5565b806363d194321461040c57806370a082311461043d57806382aefa241461046d57806391d148541461048b576101e5565b8063248a9ca31161018757806336568abe1161015657806336568abe1461037457806342842e0e146103905780634f6ccce7146103ac5780636352211e146103dc576101e5565b8063248a9ca3146102da5780632f2ff15d1461030a5780632f745c59146103265780633132e03414610356576101e5565b8063095ea7b3116101c3578063095ea7b31461026857806318160ddd146102845780631b87278d146102a257806323b872dd146102be576101e5565b806301ffc9a7146101ea57806306fdde031461021a578063081812fc14610238575b600080fd5b61020460048036038101906101ff9190613304565b610687565b604051610211919061334c565b60405180910390f35b610222610699565b60405161022f91906133f7565b60405180910390f35b610252600480360381019061024d919061344f565b61072b565b60405161025f91906134bd565b60405180910390f35b610282600480360381019061027d9190613504565b610771565b005b61028c610888565b6040516102999190613553565b60405180910390f35b6102bc60048036038101906102b7919061344f565b610895565b005b6102d860048036038101906102d3919061356e565b610956565b005b6102f460048036038101906102ef91906135f7565b6109b6565b6040516103019190613633565b60405180910390f35b610324600480360381019061031f919061364e565b6109d6565b005b610340600480360381019061033b9190613504565b6109f7565b60405161034d9190613553565b60405180910390f35b61035e610a9c565b60405161036b9190613553565b60405180910390f35b61038e6004803603810190610389919061364e565b610aa9565b005b6103aa60048036038101906103a5919061356e565b610b2c565b005b6103c660048036038101906103c1919061344f565b610b4c565b6040516103d39190613553565b60405180910390f35b6103f660048036038101906103f1919061344f565b610bbd565b60405161040391906134bd565b60405180910390f35b6104266004803603810190610421919061344f565b610c43565b60405161043492919061368e565b60405180910390f35b610457600480360381019061045291906136be565b610da7565b6040516104649190613553565b60405180910390f35b610475610e5e565b6040516104829190613633565b60405180910390f35b6104a560048036038101906104a0919061364e565b610e82565b6040516104b2919061334c565b60405180910390f35b6104d560048036038101906104d0919061344f565b610eed565b6040516104e291906134bd565b60405180910390f35b6104f3610f20565b60405161050091906133f7565b60405180910390f35b610523600480360381019061051e9190613820565b610fb2565b6040516105309190613553565b60405180910390f35b6105416110fa565b60405161054e9190613633565b60405180910390f35b610571600480360381019061056c91906138d7565b611101565b005b61058d60048036038101906105889190613917565b611117565b005b6105a960048036038101906105a4919061344f565b611291565b6040516105b691906133f7565b60405180910390f35b6105d960048036038101906105d491906136be565b611331565b6040516105e691906133f7565b60405180910390f35b61060960048036038101906106049190613a14565b6113d1565b005b6106256004803603810190610620919061344f565b611433565b60405161063291906133f7565b60405180910390f35b6106556004803603810190610650919061364e565b611445565b005b610671600480360381019061066c9190613a97565b611466565b60405161067e919061334c565b60405180910390f35b6000610692826114fa565b9050919050565b6060600080546106a890613b06565b80601f01602080910402602001604051908101604052809291908181526020018280546106d490613b06565b80156107215780601f106106f657610100808354040283529160200191610721565b820191906000526020600020905b81548152906001019060200180831161070457829003601f168201915b5050505050905090565b600061073682611574565b6004600083815260200190815260200160002060009054906101000a900473ffffffffffffffffffffffffffffffffffffffff169050919050565b600061077c82610bbd565b90508073ffffffffffffffffffffffffffffffffffffffff168373ffffffffffffffffffffffffffffffffffffffff16036107ec576040517f08c379a00000000000000000000000000000000000000000000000000000000081526004016107e390613ba9565b60405180910390fd5b8073ffffffffffffffffffffffffffffffffffffffff1661080b6115bf565b73ffffffffffffffffffffffffffffffffffffffff16148061083a5750610839816108346115bf565b611466565b5b610879576040517f08c379a000000000000000000000000000000000000000000000000000000000815260040161087090613c3b565b60405180910390fd5b61088383836115c7565b505050565b6000600980549050905090565b6108a26000801b33610e82565b8061090b57503373ffffffffffffffffffffffffffffffffffffffff16600e600083815260200190815260200160002060009054906101000a900473ffffffffffffffffffffffffffffffffffffffff1673ffffffffffffffffffffffffffffffffffffffff16145b61094a576040517f08c379a000000000000000000000000000000000000000000000000000000000815260040161094190613ca7565b60405180910390fd5b61095381611680565b50565b6109676109616115bf565b826116c2565b6109a6576040517f08c379a000000000000000000000000000000000000000000000000000000000815260040161099d90613d39565b60405180910390fd5b6109b1838383611757565b505050565b6000600b6000838152602001908152602001600020600101549050919050565b6109df826109b6565b6109e881611a50565b6109f28383611a64565b505050565b6000610a0283610da7565b8210610a43576040517f08c379a0000000000000000000000000000000000000000000000000000000008152600401610a3a90613dcb565b60405180910390fd5b600760008473ffffffffffffffffffffffffffffffffffffffff1673ffffffffffffffffffffffffffffffffffffffff168152602001908152602001600020600083815260200190815260200160002054905092915050565b6000600d80549050905090565b610ab16115bf565b73ffffffffffffffffffffffffffffffffffffffff168173ffffffffffffffffffffffffffffffffffffffff1614610b1e576040517f08c379a0000000000000000000000000000000000000000000000000000000008152600401610b1590613e5d565b60405180910390fd5b610b288282611b45565b5050565b610b47838383604051806020016040528060008152506113d1565b505050565b6000610b56610888565b8210610b97576040517f08c379a0000000000000000000000000000000000000000000000000000000008152600401610b8e90613eef565b60405180910390fd5b60098281548110610bab57610baa613f0f565b5b90600052602060002001549050919050565b600080610bc983611c27565b9050600073ffffffffffffffffffffffffffffffffffffffff168173ffffffffffffffffffffffffffffffffffffffff1603610c3a576040517f08c379a0000000000000000000000000000000000000000000000000000000008152600401610c3190613f8a565b60405180910390fd5b80915050919050565b60006060600d805490508310610c8e576040517f08c379a0000000000000000000000000000000000000000000000000000000008152600401610c8590613ff6565b60405180910390fd5b6000600d8481548110610ca457610ca3613f0f565b5b9060005260206000200160009054906101000a900473ffffffffffffffffffffffffffffffffffffffff16905080600c60008373ffffffffffffffffffffffffffffffffffffffff1673ffffffffffffffffffffffffffffffffffffffff168152602001908152602001600020808054610d1d90613b06565b80601f0160208091040260200160405190810160405280929190818152602001828054610d4990613b06565b8015610d965780601f10610d6b57610100808354040283529160200191610d96565b820191906000526020600020905b815481529060010190602001808311610d7957829003601f168201915b505050505090509250925050915091565b60008073ffffffffffffffffffffffffffffffffffffffff168273ffffffffffffffffffffffffffffffffffffffff1603610e17576040517f08c379a0000000000000000000000000000000000000000000000000000000008152600401610e0e90614088565b60405180910390fd5b600360008373ffffffffffffffffffffffffffffffffffffffff1673ffffffffffffffffffffffffffffffffffffffff168152602001908152602001600020549050919050565b7f114e74f6ea3bd819998f78687bfcb11b140da08e9b7d222fa9c1f1ba1f2aa12281565b6000600b600084815260200190815260200160002060000160008373ffffffffffffffffffffffffffffffffffffffff1673ffffffffffffffffffffffffffffffffffffffff16815260200190815260200160002060009054906101000a900460ff16905092915050565b600e6020528060005260406000206000915054906101000a900473ffffffffffffffffffffffffffffffffffffffff1681565b606060018054610f2f90613b06565b80601f0160208091040260200160405190810160405280929190818152602001828054610f5b90613b06565b8015610fa85780601f10610f7d57610100808354040283529160200191610fa8565b820191906000526020600020905b815481529060010190602001808311610f8b57829003601f168201915b5050505050905090565b60007f114e74f6ea3bd819998f78687bfcb11b140da08e9b7d222fa9c1f1ba1f2aa122610fde81611a50565b600160106000828254610ff191906140d7565b92505081905550600060105490506110098682611c64565b6110138186611c82565b33600e600083815260200190815260200160002060006101000a81548173ffffffffffffffffffffffffffffffffffffffff021916908373ffffffffffffffffffffffffffffffffffffffff16021790555083600f6000838152602001908152602001600020908161108591906142b7565b506010548673ffffffffffffffffffffffffffffffffffffffff163373ffffffffffffffffffffffffffffffffffffffff167fa21eca1f4377884c61125bfacdd582bff77e7c3aabedb7ebc5742be7af9dcbbb876040516110e691906133f7565b60405180910390a480925050509392505050565b6000801b81565b61111361110c6115bf565b8383611d26565b5050565b6000801b61112481611a50565b6000600c60008573ffffffffffffffffffffffffffffffffffffffff1673ffffffffffffffffffffffffffffffffffffffff168152602001908152602001600020805461117090613b06565b9050146111b2576040517f08c379a00000000000000000000000000000000000000000000000000000000081526004016111a9906143d5565b60405180910390fd5b6111dc7f114e74f6ea3bd819998f78687bfcb11b140da08e9b7d222fa9c1f1ba1f2aa122846109d6565b81600c60008573ffffffffffffffffffffffffffffffffffffffff1673ffffffffffffffffffffffffffffffffffffffff168152602001908152602001600020908161122891906142b7565b50600d839080600181540180825580915050600190039060005260206000200160009091909190916101000a81548173ffffffffffffffffffffffffffffffffffffffff021916908373ffffffffffffffffffffffffffffffffffffffff160217905550505050565b600f60205280600052604060002060009150905080546112b090613b06565b80601f01602080910402602001604051908101604052809291908181526020018280546112dc90613b06565b80156113295780601f106112fe57610100808354040283529160200191611329565b820191906000526020600020905b81548152906001019060200180831161130c57829003601f168201915b505050505081565b600c602052806000526040600020600091509050805461135090613b06565b80601f016020809104026020016040519081016040528092919081815260200182805461137c90613b06565b80156113c95780601f1061139e576101008083540402835291602001916113c9565b820191906000526020600020905b8154815290600101906020018083116113ac57829003601f168201915b505050505081565b6113e26113dc6115bf565b836116c2565b611421576040517f08c379a000000000000000000000000000000000000000000000000000000000815260040161141890613d39565b60405180910390fd5b61142d84848484611e92565b50505050565b606061143e82611eee565b9050919050565b61144e826109b6565b61145781611a50565b6114618383611b45565b505050565b6000600560008473ffffffffffffffffffffffffffffffffffffffff1673ffffffffffffffffffffffffffffffffffffffff16815260200190815260200160002060008373ffffffffffffffffffffffffffffffffffffffff1673ffffffffffffffffffffffffffffffffffffffff16815260200190815260200160002060009054906101000a900460ff16905092915050565b60007f7965db0b000000000000000000000000000000000000000000000000000000007bffffffffffffffffffffffffffffffffffffffffffffffffffffffff1916827bffffffffffffffffffffffffffffffffffffffffffffffffffffffff1916148061156d575061156c82612000565b5b9050919050565b61157d8161207a565b6115bc576040517f08c379a00000000000000000000000000000000000000000000000000000000081526004016115b390613f8a565b60405180910390fd5b50565b600033905090565b816004600083815260200190815260200160002060006101000a81548173ffffffffffffffffffffffffffffffffffffffff021916908373ffffffffffffffffffffffffffffffffffffffff160217905550808273ffffffffffffffffffffffffffffffffffffffff1661163a83610bbd565b73ffffffffffffffffffffffffffffffffffffffff167f8c5be1e5ebec7d5bd14f71427d1e84f3dd0314c0f7b2291e5b200ac8c7c3b92560405160405180910390a45050565b611689816120bb565b600e600082815260200190815260200160002060006101000a81549073ffffffffffffffffffffffffffffffffffffffff021916905550565b6000806116ce83610bbd565b90508073ffffffffffffffffffffffffffffffffffffffff168473ffffffffffffffffffffffffffffffffffffffff161480611710575061170f8185611466565b5b8061174e57508373ffffffffffffffffffffffffffffffffffffffff166117368461072b565b73ffffffffffffffffffffffffffffffffffffffff16145b91505092915050565b8273ffffffffffffffffffffffffffffffffffffffff1661177782610bbd565b73ffffffffffffffffffffffffffffffffffffffff16146117cd576040517f08c379a00000000000000000000000000000000000000000000000000000000081526004016117c490614467565b60405180910390fd5b600073ffffffffffffffffffffffffffffffffffffffff168273ffffffffffffffffffffffffffffffffffffffff160361183c576040517f08c379a0000000000000000000000000000000000000000000000000000000008152600401611833906144f9565b60405180910390fd5b611849838383600161210e565b8273ffffffffffffffffffffffffffffffffffffffff1661186982610bbd565b73ffffffffffffffffffffffffffffffffffffffff16146118bf576040517f08c379a00000000000000000000000000000000000000000000000000000000081526004016118b690614467565b60405180910390fd5b6004600082815260200190815260200160002060006101000a81549073ffffffffffffffffffffffffffffffffffffffff02191690556001600360008573ffffffffffffffffffffffffffffffffffffffff1673ffffffffffffffffffffffffffffffffffffffff168152602001908152602001600020600082825403925050819055506001600360008473ffffffffffffffffffffffffffffffffffffffff1673ffffffffffffffffffffffffffffffffffffffff16815260200190815260200160002060008282540192505081905550816002600083815260200190815260200160002060006101000a81548173ffffffffffffffffffffffffffffffffffffffff021916908373ffffffffffffffffffffffffffffffffffffffff160217905550808273ffffffffffffffffffffffffffffffffffffffff168473ffffffffffffffffffffffffffffffffffffffff167fddf252ad1be2c89b69c2b068fc378daa952ba7f163c4a11628f55a4df523b3ef60405160405180910390a4611a4b8383836001612120565b505050565b611a6181611a5c6115bf565b612126565b50565b611a6e8282610e82565b611b41576001600b600084815260200190815260200160002060000160008373ffffffffffffffffffffffffffffffffffffffff1673ffffffffffffffffffffffffffffffffffffffff16815260200190815260200160002060006101000a81548160ff021916908315150217905550611ae66115bf565b73ffffffffffffffffffffffffffffffffffffffff168173ffffffffffffffffffffffffffffffffffffffff16837f2f8788117e7eff1d82e926ec794901d17c78024a50270940304540a733656f0d60405160405180910390a45b5050565b611b4f8282610e82565b15611c23576000600b600084815260200190815260200160002060000160008373ffffffffffffffffffffffffffffffffffffffff1673ffffffffffffffffffffffffffffffffffffffff16815260200190815260200160002060006101000a81548160ff021916908315150217905550611bc86115bf565b73ffffffffffffffffffffffffffffffffffffffff168173ffffffffffffffffffffffffffffffffffffffff16837ff6391f5c32d9c69d2a47ea670b442974b53935d1edc7fd64eb21e047a839171b60405160405180910390a45b5050565b60006002600083815260200190815260200160002060009054906101000a900473ffffffffffffffffffffffffffffffffffffffff169050919050565b611c7e8282604051806020016040528060008152506121ab565b5050565b611c8b8261207a565b611cca576040517f08c379a0000000000000000000000000000000000000000000000000000000008152600401611cc19061458b565b60405180910390fd5b80600660008481526020019081526020016000209081611cea91906142b7565b507ff8e1a15aba9398e019f0b49df1a4fde98ee17ae345cb5f6b5e2c27f5033e8ce782604051611d1a9190613553565b60405180910390a15050565b8173ffffffffffffffffffffffffffffffffffffffff168373ffffffffffffffffffffffffffffffffffffffff1603611d94576040517f08c379a0000000000000000000000000000000000000000000000000000000008152600401611d8b906145f7565b60405180910390fd5b80600560008573ffffffffffffffffffffffffffffffffffffffff1673ffffffffffffffffffffffffffffffffffffffff16815260200190815260200160002060008473ffffffffffffffffffffffffffffffffffffffff1673ffffffffffffffffffffffffffffffffffffffff16815260200190815260200160002060006101000a81548160ff0219169083151502179055508173ffffffffffffffffffffffffffffffffffffffff168373ffffffffffffffffffffffffffffffffffffffff167f17307eab39ab6107e8899845ad3d59bd9653f200f220920489ca2b5937696c3183604051611e85919061334c565b60405180910390a3505050565b611e9d848484611757565b611ea984848484612206565b611ee8576040517f08c379a0000000000000000000000000000000000000000000000000000000008152600401611edf90614689565b60405180910390fd5b50505050565b6060611ef982611574565b6000600660008481526020019081526020016000208054611f1990613b06565b80601f0160208091040260200160405190810160405280929190818152602001828054611f4590613b06565b8015611f925780601f10611f6757610100808354040283529160200191611f92565b820191906000526020600020905b815481529060010190602001808311611f7557829003601f168201915b505050505090506000611fa361238d565b90506000815103611fb8578192505050611ffb565b600082511115611fed578082604051602001611fd59291906146e5565b60405160208183030381529060405292505050611ffb565b611ff6846123a4565b925050505b919050565b60007f780e9d63000000000000000000000000000000000000000000000000000000007bffffffffffffffffffffffffffffffffffffffffffffffffffffffff1916827bffffffffffffffffffffffffffffffffffffffffffffffffffffffff1916148061207357506120728261240c565b5b9050919050565b60008073ffffffffffffffffffffffffffffffffffffffff1661209c83611c27565b73ffffffffffffffffffffffffffffffffffffffff1614159050919050565b6120c48161246d565b60006006600083815260200190815260200160002080546120e490613b06565b90501461210b5760066000828152602001908152602001600020600061210a919061323b565b5b50565b61211a848484846125bb565b50505050565b50505050565b6121308282610e82565b6121a75761213d81612719565b61214b8360001c6020612746565b60405160200161215c9291906147a1565b6040516020818303038152906040526040517f08c379a000000000000000000000000000000000000000000000000000000000815260040161219e91906133f7565b60405180910390fd5b5050565b6121b58383612982565b6121c26000848484612206565b612201576040517f08c379a00000000000000000000000000000000000000000000000000000000081526004016121f890614689565b60405180910390fd5b505050565b60006122278473ffffffffffffffffffffffffffffffffffffffff16612b9f565b15612380578373ffffffffffffffffffffffffffffffffffffffff1663150b7a026122506115bf565b8786866040518563ffffffff1660e01b81526004016122729493929190614830565b6020604051808303816000875af19250505080156122ae57506040513d601f19601f820116820180604052508101906122ab9190614891565b60015b612330573d80600081146122de576040519150601f19603f3d011682016040523d82523d6000602084013e6122e3565b606091505b506000815103612328576040517f08c379a000000000000000000000000000000000000000000000000000000000815260040161231f90614689565b60405180910390fd5b805181602001fd5b63150b7a0260e01b7bffffffffffffffffffffffffffffffffffffffffffffffffffffffff1916817bffffffffffffffffffffffffffffffffffffffffffffffffffffffff191614915050612385565b600190505b949350505050565b606060405180602001604052806000815250905090565b60606123af82611574565b60006123b961238d565b905060008151116123d95760405180602001604052806000815250612404565b806123e384612bc2565b6040516020016123f49291906146e5565b6040516020818303038152906040525b915050919050565b6000634906490660e01b7bffffffffffffffffffffffffffffffffffffffffffffffffffffffff1916827bffffffffffffffffffffffffffffffffffffffffffffffffffffffff19161480612466575061246582612c90565b5b9050919050565b600061247882610bbd565b905061248881600084600161210e565b61249182610bbd565b90506004600083815260200190815260200160002060006101000a81549073ffffffffffffffffffffffffffffffffffffffff02191690556001600360008373ffffffffffffffffffffffffffffffffffffffff1673ffffffffffffffffffffffffffffffffffffffff168152602001908152602001600020600082825403925050819055506002600083815260200190815260200160002060006101000a81549073ffffffffffffffffffffffffffffffffffffffff021916905581600073ffffffffffffffffffffffffffffffffffffffff168273ffffffffffffffffffffffffffffffffffffffff167fddf252ad1be2c89b69c2b068fc378daa952ba7f163c4a11628f55a4df523b3ef60405160405180910390a46125b7816000846001612120565b5050565b6125c784848484612d72565b600181111561260b576040517f08c379a000000000000000000000000000000000000000000000000000000000815260040161260290614930565b60405180910390fd5b6000829050600073ffffffffffffffffffffffffffffffffffffffff168573ffffffffffffffffffffffffffffffffffffffff16036126525761264d81612d78565b612691565b8373ffffffffffffffffffffffffffffffffffffffff168573ffffffffffffffffffffffffffffffffffffffff16146126905761268f8582612dc1565b5b5b600073ffffffffffffffffffffffffffffffffffffffff168473ffffffffffffffffffffffffffffffffffffffff16036126d3576126ce81612f2e565b612712565b8473ffffffffffffffffffffffffffffffffffffffff168473ffffffffffffffffffffffffffffffffffffffff1614612711576127108482612fff565b5b5b5050505050565b606061273f8273ffffffffffffffffffffffffffffffffffffffff16601460ff16612746565b9050919050565b6060600060028360026127599190614950565b61276391906140d7565b67ffffffffffffffff81111561277c5761277b6136f5565b5b6040519080825280601f01601f1916602001820160405280156127ae5781602001600182028036833780820191505090505b5090507f3000000000000000000000000000000000000000000000000000000000000000816000815181106127e6576127e5613f0f565b5b60200101907effffffffffffffffffffffffffffffffffffffffffffffffffffffffffffff1916908160001a9053507f78000000000000000000000000000000000000000000000000000000000000008160018151811061284a57612849613f0f565b5b60200101907effffffffffffffffffffffffffffffffffffffffffffffffffffffffffffff1916908160001a9053506000600184600261288a9190614950565b61289491906140d7565b90505b6001811115612934577f3031323334353637383961626364656600000000000000000000000000000000600f8616601081106128d6576128d5613f0f565b5b1a60f81b8282815181106128ed576128ec613f0f565b5b60200101907effffffffffffffffffffffffffffffffffffffffffffffffffffffffffffff1916908160001a905350600485901c94508061292d90614992565b9050612897565b5060008414612978576040517f08c379a000000000000000000000000000000000000000000000000000000000815260040161296f90614a07565b60405180910390fd5b8091505092915050565b600073ffffffffffffffffffffffffffffffffffffffff168273ffffffffffffffffffffffffffffffffffffffff16036129f1576040517f08c379a00000000000000000000000000000000000000000000000000000000081526004016129e890614a73565b60405180910390fd5b6129fa8161207a565b15612a3a576040517f08c379a0000000000000000000000000000000000000000000000000000000008152600401612a3190614adf565b60405180910390fd5b612a4860008383600161210e565b612a518161207a565b15612a91576040517f08c379a0000000000000000000000000000000000000000000000000000000008152600401612a8890614adf565b60405180910390fd5b6001600360008473ffffffffffffffffffffffffffffffffffffffff1673ffffffffffffffffffffffffffffffffffffffff16815260200190815260200160002060008282540192505081905550816002600083815260200190815260200160002060006101000a81548173ffffffffffffffffffffffffffffffffffffffff021916908373ffffffffffffffffffffffffffffffffffffffff160217905550808273ffffffffffffffffffffffffffffffffffffffff16600073ffffffffffffffffffffffffffffffffffffffff167fddf252ad1be2c89b69c2b068fc378daa952ba7f163c4a11628f55a4df523b3ef60405160405180910390a4612b9b600083836001612120565b5050565b6000808273ffffffffffffffffffffffffffffffffffffffff163b119050919050565b606060006001612bd18461307e565b01905060008167ffffffffffffffff811115612bf057612bef6136f5565b5b6040519080825280601f01601f191660200182016040528015612c225781602001600182028036833780820191505090505b509050600082602001820190505b600115612c85578080600190039150507f3031323334353637383961626364656600000000000000000000000000000000600a86061a8153600a8581612c7957612c78614aff565b5b04945060008503612c30575b819350505050919050565b60007f80ac58cd000000000000000000000000000000000000000000000000000000007bffffffffffffffffffffffffffffffffffffffffffffffffffffffff1916827bffffffffffffffffffffffffffffffffffffffffffffffffffffffff19161480612d5b57507f5b5e139f000000000000000000000000000000000000000000000000000000007bffffffffffffffffffffffffffffffffffffffffffffffffffffffff1916827bffffffffffffffffffffffffffffffffffffffffffffffffffffffff1916145b80612d6b5750612d6a826131d1565b5b9050919050565b50505050565b600980549050600a600083815260200190815260200160002081905550600981908060018154018082558091505060019003906000526020600020016000909190919091505550565b60006001612dce84610da7565b612dd89190614b2e565b9050600060086000848152602001908152602001600020549050818114612ebd576000600760008673ffffffffffffffffffffffffffffffffffffffff1673ffffffffffffffffffffffffffffffffffffffff168152602001908152602001600020600084815260200190815260200160002054905080600760008773ffffffffffffffffffffffffffffffffffffffff1673ffffffffffffffffffffffffffffffffffffffff168152602001908152602001600020600084815260200190815260200160002081905550816008600083815260200190815260200160002081905550505b6008600084815260200190815260200160002060009055600760008573ffffffffffffffffffffffffffffffffffffffff1673ffffffffffffffffffffffffffffffffffffffff16815260200190815260200160002060008381526020019081526020016000206000905550505050565b60006001600980549050612f429190614b2e565b90506000600a6000848152602001908152602001600020549050600060098381548110612f7257612f71613f0f565b5b906000526020600020015490508060098381548110612f9457612f93613f0f565b5b906000526020600020018190555081600a600083815260200190815260200160002081905550600a6000858152602001908152602001600020600090556009805480612fe357612fe2614b62565b5b6001900381819060005260206000200160009055905550505050565b600061300a83610da7565b905081600760008573ffffffffffffffffffffffffffffffffffffffff1673ffffffffffffffffffffffffffffffffffffffff168152602001908152602001600020600083815260200190815260200160002081905550806008600084815260200190815260200160002081905550505050565b600080600090507a184f03e93ff9f4daa797ed6e38ed64bf6a1f01000000000000000083106130dc577a184f03e93ff9f4daa797ed6e38ed64bf6a1f01000000000000000083816130d2576130d1614aff565b5b0492506040810190505b6d04ee2d6d415b85acef81000000008310613119576d04ee2d6d415b85acef8100000000838161310f5761310e614aff565b5b0492506020810190505b662386f26fc10000831061314857662386f26fc10000838161313e5761313d614aff565b5b0492506010810190505b6305f5e1008310613171576305f5e100838161316757613166614aff565b5b0492506008810190505b612710831061319657612710838161318c5761318b614aff565b5b0492506004810190505b606483106131b957606483816131af576131ae614aff565b5b0492506002810190505b600a83106131c8576001810190505b80915050919050565b60007f01ffc9a7000000000000000000000000000000000000000000000000000000007bffffffffffffffffffffffffffffffffffffffffffffffffffffffff1916827bffffffffffffffffffffffffffffffffffffffffffffffffffffffff1916149050919050565b50805461324790613b06565b6000825580601f106132595750613278565b601f016020900490600052602060002090810190613277919061327b565b5b50565b5b8082111561329457600081600090555060010161327c565b5090565b6000604051905090565b600080fd5b600080fd5b60007fffffffff0000000000000000000000000000000000000000000000000000000082169050919050565b6132e1816132ac565b81146132ec57600080fd5b50565b6000813590506132fe816132d8565b92915050565b60006020828403121561331a576133196132a2565b5b6000613328848285016132ef565b91505092915050565b60008115159050919050565b61334681613331565b82525050565b6000602082019050613361600083018461333d565b92915050565b600081519050919050565b600082825260208201905092915050565b60005b838110156133a1578082015181840152602081019050613386565b60008484015250505050565b6000601f19601f8301169050919050565b60006133c982613367565b6133d38185613372565b93506133e3818560208601613383565b6133ec816133ad565b840191505092915050565b6000602082019050818103600083015261341181846133be565b905092915050565b6000819050919050565b61342c81613419565b811461343757600080fd5b50565b60008135905061344981613423565b92915050565b600060208284031215613465576134646132a2565b5b60006134738482850161343a565b91505092915050565b600073ffffffffffffffffffffffffffffffffffffffff82169050919050565b60006134a78261347c565b9050919050565b6134b78161349c565b82525050565b60006020820190506134d260008301846134ae565b92915050565b6134e18161349c565b81146134ec57600080fd5b50565b6000813590506134fe816134d8565b92915050565b6000806040838503121561351b5761351a6132a2565b5b6000613529858286016134ef565b925050602061353a8582860161343a565b9150509250929050565b61354d81613419565b82525050565b60006020820190506135686000830184613544565b92915050565b600080600060608486031215613587576135866132a2565b5b6000613595868287016134ef565b93505060206135a6868287016134ef565b92505060406135b78682870161343a565b9150509250925092565b6000819050919050565b6135d4816135c1565b81146135df57600080fd5b50565b6000813590506135f1816135cb565b92915050565b60006020828403121561360d5761360c6132a2565b5b600061361b848285016135e2565b91505092915050565b61362d816135c1565b82525050565b60006020820190506136486000830184613624565b92915050565b60008060408385031215613665576136646132a2565b5b6000613673858286016135e2565b9250506020613684858286016134ef565b9150509250929050565b60006040820190506136a360008301856134ae565b81810360208301526136b581846133be565b90509392505050565b6000602082840312156136d4576136d36132a2565b5b60006136e2848285016134ef565b91505092915050565b600080fd5b600080fd5b7f4e487b7100000000000000000000000000000000000000000000000000000000600052604160045260246000fd5b61372d826133ad565b810181811067ffffffffffffffff8211171561374c5761374b6136f5565b5b80604052505050565b600061375f613298565b905061376b8282613724565b919050565b600067ffffffffffffffff82111561378b5761378a6136f5565b5b613794826133ad565b9050602081019050919050565b82818337600083830152505050565b60006137c36137be84613770565b613755565b9050828152602081018484840111156137df576137de6136f0565b5b6137ea8482856137a1565b509392505050565b600082601f830112613807576138066136eb565b5b81356138178482602086016137b0565b91505092915050565b600080600060608486031215613839576138386132a2565b5b6000613847868287016134ef565b935050602084013567ffffffffffffffff811115613868576138676132a7565b5b613874868287016137f2565b925050604084013567ffffffffffffffff811115613895576138946132a7565b5b6138a1868287016137f2565b9150509250925092565b6138b481613331565b81146138bf57600080fd5b50565b6000813590506138d1816138ab565b92915050565b600080604083850312156138ee576138ed6132a2565b5b60006138fc858286016134ef565b925050602061390d858286016138c2565b9150509250929050565b6000806040838503121561392e5761392d6132a2565b5b600061393c858286016134ef565b925050602083013567ffffffffffffffff81111561395d5761395c6132a7565b5b613969858286016137f2565b9150509250929050565b600067ffffffffffffffff82111561398e5761398d6136f5565b5b613997826133ad565b9050602081019050919050565b60006139b76139b284613973565b613755565b9050828152602081018484840111156139d3576139d26136f0565b5b6139de8482856137a1565b509392505050565b600082601f8301126139fb576139fa6136eb565b5b8135613a0b8482602086016139a4565b91505092915050565b60008060008060808587031215613a2e57613a2d6132a2565b5b6000613a3c878288016134ef565b9450506020613a4d878288016134ef565b9350506040613a5e8782880161343a565b925050606085013567ffffffffffffffff811115613a7f57613a7e6132a7565b5b613a8b878288016139e6565b91505092959194509250565b60008060408385031215613aae57613aad6132a2565b5b6000613abc858286016134ef565b9250506020613acd858286016134ef565b9150509250929050565b7f4e487b7100000000000000000000000000000000000000000000000000000000600052602260045260246000fd5b60006002820490506001821680613b1e57607f821691505b602082108103613b3157613b30613ad7565b5b50919050565b7f4552433732313a20617070726f76616c20746f2063757272656e74206f776e6560008201527f7200000000000000000000000000000000000000000000000000000000000000602082015250565b6000613b93602183613372565b9150613b9e82613b37565b604082019050919050565b60006020820190508181036000830152613bc281613b86565b9050919050565b7f4552433732313a20617070726f76652063616c6c6572206973206e6f7420746f60008201527f6b656e206f776e6572206f7220617070726f76656420666f7220616c6c000000602082015250565b6000613c25603d83613372565b9150613c3082613bc9565b604082019050919050565b60006020820190508181036000830152613c5481613c18565b9050919050565b7f4e6f7420617574686f72697a656420746f207265766f6b650000000000000000600082015250565b6000613c91601883613372565b9150613c9c82613c5b565b602082019050919050565b60006020820190508181036000830152613cc081613c84565b9050919050565b7f4552433732313a2063616c6c6572206973206e6f7420746f6b656e206f776e6560008201527f72206f7220617070726f76656400000000000000000000000000000000000000602082015250565b6000613d23602d83613372565b9150613d2e82613cc7565b604082019050919050565b60006020820190508181036000830152613d5281613d16565b9050919050565b7f455243373231456e756d657261626c653a206f776e657220696e646578206f7560008201527f74206f6620626f756e6473000000000000000000000000000000000000000000602082015250565b6000613db5602b83613372565b9150613dc082613d59565b604082019050919050565b60006020820190508181036000830152613de481613da8565b9050919050565b7f416363657373436f6e74726f6c3a2063616e206f6e6c792072656e6f756e636560008201527f20726f6c657320666f722073656c660000000000000000000000000000000000602082015250565b6000613e47602f83613372565b9150613e5282613deb565b604082019050919050565b60006020820190508181036000830152613e7681613e3a565b9050919050565b7f455243373231456e756d657261626c653a20676c6f62616c20696e646578206f60008201527f7574206f6620626f756e64730000000000000000000000000000000000000000602082015250565b6000613ed9602c83613372565b9150613ee482613e7d565b604082019050919050565b60006020820190508181036000830152613f0881613ecc565b9050919050565b7f4e487b7100000000000000000000000000000000000000000000000000000000600052603260045260246000fd5b7f4552433732313a20696e76616c696420746f6b656e2049440000000000000000600082015250565b6000613f74601883613372565b9150613f7f82613f3e565b602082019050919050565b60006020820190508181036000830152613fa381613f67565b9050919050565b7f496e646578206f7574206f6620626f756e647300000000000000000000000000600082015250565b6000613fe0601383613372565b9150613feb82613faa565b602082019050919050565b6000602082019050818103600083015261400f81613fd3565b9050919050565b7f4552433732313a2061646472657373207a65726f206973206e6f74206120766160008201527f6c6964206f776e65720000000000000000000000000000000000000000000000602082015250565b6000614072602983613372565b915061407d82614016565b604082019050919050565b600060208201905081810360008301526140a181614065565b9050919050565b7f4e487b7100000000000000000000000000000000000000000000000000000000600052601160045260246000fd5b60006140e282613419565b91506140ed83613419565b9250828201905080821115614105576141046140a8565b5b92915050565b60008190508160005260206000209050919050565b60006020601f8301049050919050565b600082821b905092915050565b60006008830261416d7fffffffffffffffffffffffffffffffffffffffffffffffffffffffffffffffff82614130565b6141778683614130565b95508019841693508086168417925050509392505050565b6000819050919050565b60006141b46141af6141aa84613419565b61418f565b613419565b9050919050565b6000819050919050565b6141ce83614199565b6141e26141da826141bb565b84845461413d565b825550505050565b600090565b6141f76141ea565b6142028184846141c5565b505050565b5b818110156142265761421b6000826141ef565b600181019050614208565b5050565b601f82111561426b5761423c8161410b565b61424584614120565b81016020851015614254578190505b61426861426085614120565b830182614207565b50505b505050565b600082821c905092915050565b600061428e60001984600802614270565b1980831691505092915050565b60006142a7838361427d565b9150826002028217905092915050565b6142c082613367565b67ffffffffffffffff8111156142d9576142d86136f5565b5b6142e38254613b06565b6142ee82828561422a565b600060209050601f831160018114614321576000841561430f578287015190505b614319858261429b565b865550614381565b601f19841661432f8661410b565b60005b8281101561435757848901518255600182019150602085019450602081019050614332565b868310156143745784890151614370601f89168261427d565b8355505b6001600288020188555050505b505050505050565b7f556e697665727369747920616c72656164792072656769737465726564000000600082015250565b60006143bf601d83613372565b91506143ca82614389565b602082019050919050565b600060208201905081810360008301526143ee816143b2565b9050919050565b7f4552433732313a207472616e736665722066726f6d20696e636f72726563742060008201527f6f776e6572000000000000000000000000000000000000000000000000000000602082015250565b6000614451602583613372565b915061445c826143f5565b604082019050919050565b6000602082019050818103600083015261448081614444565b9050919050565b7f4552433732313a207472616e7366657220746f20746865207a65726f2061646460008201527f7265737300000000000000000000000000000000000000000000000000000000602082015250565b60006144e3602483613372565b91506144ee82614487565b604082019050919050565b60006020820190508181036000830152614512816144d6565b9050919050565b7f45524337323155524953746f726167653a2055524920736574206f66206e6f6e60008201527f6578697374656e7420746f6b656e000000000000000000000000000000000000602082015250565b6000614575602e83613372565b915061458082614519565b604082019050919050565b600060208201905081810360008301526145a481614568565b9050919050565b7f4552433732313a20617070726f766520746f2063616c6c657200000000000000600082015250565b60006145e1601983613372565b91506145ec826145ab565b602082019050919050565b60006020820190508181036000830152614610816145d4565b9050919050565b7f4552433732313a207472616e7366657220746f206e6f6e20455243373231526560008201527f63656976657220696d706c656d656e7465720000000000000000000000000000602082015250565b6000614673603283613372565b915061467e82614617565b604082019050919050565b600060208201905081810360008301526146a281614666565b9050919050565b600081905092915050565b60006146bf82613367565b6146c981856146a9565b93506146d9818560208601613383565b80840191505092915050565b60006146f182856146b4565b91506146fd82846146b4565b91508190509392505050565b7f416363657373436f6e74726f6c3a206163636f756e7420000000000000000000600082015250565b600061473f6017836146a9565b915061474a82614709565b601782019050919050565b7f206973206d697373696e6720726f6c6520000000000000000000000000000000600082015250565b600061478b6011836146a9565b915061479682614755565b601182019050919050565b60006147ac82614732565b91506147b882856146b4565b91506147c38261477e565b91506147cf82846146b4565b91508190509392505050565b600081519050919050565b600082825260208201905092915050565b6000614802826147db565b61480c81856147e6565b935061481c818560208601613383565b614825816133ad565b840191505092915050565b600060808201905061484560008301876134ae565b61485260208301866134ae565b61485f6040830185613544565b818103606083015261487181846147f7565b905095945050505050565b60008151905061488b816132d8565b92915050565b6000602082840312156148a7576148a66132a2565b5b60006148b58482850161487c565b91505092915050565b7f455243373231456e756d657261626c653a20636f6e736563757469766520747260008201527f616e7366657273206e6f7420737570706f727465640000000000000000000000602082015250565b600061491a603583613372565b9150614925826148be565b604082019050919050565b600060208201905081810360008301526149498161490d565b9050919050565b600061495b82613419565b915061496683613419565b925082820261497481613419565b9150828204841483151761498b5761498a6140a8565b5b5092915050565b600061499d82613419565b9150600082036149b0576149af6140a8565b5b600182039050919050565b7f537472696e67733a20686578206c656e67746820696e73756666696369656e74600082015250565b60006149f1602083613372565b91506149fc826149bb565b602082019050919050565b60006020820190508181036000830152614a20816149e4565b9050919050565b7f4552433732313a206d696e7420746f20746865207a65726f2061646472657373600082015250565b6000614a5d602083613372565b9150614a6882614a27565b602082019050919050565b60006020820190508181036000830152614a8c81614a50565b9050919050565b7f4552433732313a20746f6b656e20616c7265616479206d696e74656400000000600082015250565b6000614ac9601c83613372565b9150614ad482614a93565b602082019050919050565b60006020820190508181036000830152614af881614abc565b9050919050565b7f4e487b7100000000000000000000000000000000000000000000000000000000600052601260045260246000fd5b6000614b3982613419565b9150614b4483613419565b9250828203905081811115614b5c57614b5b6140a8565b5b92915050565b7f4e487b7100000000000000000000000000000000000000000000000000000000600052603160045260246000fdfea26469706673582212208596faa997df683c6b0dd89edad159e2885c9c56b3ca8f5be74b820918caa25a64736f6c63430008130033",
  "linkReferences": {},
  "deployedLinkReferences": {}
}